:100EE7000823FFFFFFFFFFFFFFFF08372020202019
:100EF700202020200332173B37072B00140A00005D
:100F0700000002350000C100013F0002410000015E
:0B0F17004000C1010143000221000066
:03000300DFFE22FB
:10107400AD07AC06ED1DAE0470011C4E600C7FF58F
:0B1084001200037FF512000380EA2237
:100F5D00C28C7B007A00792B750D01E4FD120E1AFF
:100F6D00E52B6011E4F52BFB7A00792B750D07FD50
:100F7D00120F23800E7B007A00792B750D07E4FD8F
:060F8D00120E1AD28C22A4
:1010C100C28C7B007A00792B750D07E4FD120F238A
:0310D100D28C229C
:0D10FA00D2A9D2AF758CFC758A17D28C225A
:03000B00020D5B88
:100D5B00C0E0C0F0C083C082C0D075D000C000C05E
:0D0D6B0001C002C003C004C005C006C007DF
:100D7800758CFC758A177B007A007923AD3F120EBB
:100D8800A9053FE53FB40803753F000522E5227039
:100D9800020521B4E80FE521B4030AB201D20075B7
:050DA80021007522008E
:100DAD00D007D006D005D004D003D002D001D0009A
:0B0DBD00D0D0D082D083D0F0D0E03244
:10056C00AC35AD36EC12032AE4FBFA79487842122A
:10057C000106E4FBFA797F784312020FE4FBFA7967
:10058C00C878421201068F0C8E0B8D0A8C09C202A0
:10059C00E542640145417041E53275F00A8424302E
:1005AC00F537E53275F00A84E5F02430F538753905
:1005BC002DE53375F00A842430F53AE53375F00AED
:1005CC0084E5F02430F53B753C2DE53475F00A8458
:1005DC002430F53DE534020817E5426402454160DC
:1005EC00030206B875372D75383175392D753A20DB
:1005FC00AF0CAE0BAD0AAC091203637C037DE812A1
:10060C0004807C007D0A120480ED4C7008200205E9
:10061C00753B208023E4FBFA797A7844AF0CAE0B5F
:10062C00AD0AAC0912020FE4FBFA794078421200D1
:10063C00151203638F3BD202AF0CAE0BAD0AAC09A3
:10064C001203637C007D641204807C007D0A12041A
:10065C0080ED4C7008200205753C208007ED24309D
:10066C00F53CD202AF0CAE0BAD0AAC091203637CA5
:10067C00007D641204807E007F0ACFCDCFCECCCE1D
:10068C00120480EF4E7008200205753D208007EFA4
:10069C002430F53DD202AF0CAE0BAD0AAC091203FF
:1006AC00637C007D0A120480ED02081DE5426403A0
:1006BC0045417074E53275F00A842430F537E53223
:1006CC0075F00A84E5F02430F538E5407009200116
:1006DC000675372075382075392DE53375F00A8489
:1006EC002430F53AE53375F00A84E5F02430F53B17
:1006FC00E540B40109200106753A20753B20753C94
:10070C002DE53475F00A842430F53DE53475F00A96
:10071C0084E5F02430F53EE54064026003020821D4
:10072C003001030208218068E54264044541706889
:10073C00E52C75F00A842430F537E52C75F00A8425
:10074C00E5F02430F538753930753A30E540700FE6
:10075C0020010C753720753820753920753A20E545
:10076C002D75F00A842430F53BE52D75F00A84E5EF
:10077C00F02430F53C753D30753E30E54064016049
:10078C0003020821300103020821753B20753C202F
:10079C00753D20753E20807DE542640545417075B0
:1007AC00E52E75F00A842430F537E52E75F00A84B1
:1007BC00E5F02430F53875392DE52F75F00A8424D1
:1007CC0030F53AE52F75F00A84E5F02430F53B75E9
:1007DC003C2DE53075F00A842430F53DE53075F09C
:1007EC000A84E5F02430F53EE540B4012875372045
:1007FC00753820753920753A20753B20753C20E5FD
:10080C003175F00A842430F53DE53175F00A84E544
:10081C00F02430F53E7510007511007512237B0025
:07082C007A007937020AC3CC
:1010D40075B00FC2C4C2C2E5B0540FFFBF0F02C344
:0310E40022D322F2
:10083300E4F508FB7A007932120DC8120F5D12102D
:10084300FA1210D440030209A77F057E0012107428
:100853001210D440030209A7120BD58F08E508B480
:100863000709754100754201020995E508B40609B7
:10087300754100754202020995E5086404705FE55D
:100883004264014541700AF541754203F54002098E
:1008930095E542640245417008F541754204020939
:1008A30095E5426403454170090540E54075F00351
:1008B3008023E5426404454170090540E54075F035
:1008C300028012E542640545416003020995054033
:1008D300E54075F0021203E485F040020995E5084E
:1008E300640B704AE5426403454170087432254045
:1008F300F806804EE542640445416003020995E52C
:100903004070137405252CF52CD39432407474FB7A
:10091300252CF52C806CE540B401117405252DF5CB
:100923002DC3952C405C74FB252DF52D8054E508D3
:10093300640A7053E54264034541701174322540E3
:10094300F8167B007A007932120DC88045E54264BF
:10095300044541703DE540701374FB252CF52CD301
:10096300952D501E7405252CF52C8016E540B401F9
:100973001174FB252DF52DC3940050067405252D08
:10098300F52D1210C1800BE508B4090675410075F9
:100993004205E5B0640F600975B00FC2C4C2C280DE
:1009A300F112056C200003020844120FC1753500D3
:1009B3008F36C2007B007A007932120E64C28CE556
:1009C30032B41710E533B43B0BE534B43706E543D3
:1009D30070020543E532B41711E533B43B0CE5343B
:1009E300B43807E543B401020543AC35AD36EC1228
:1009F300032AE4FBFA79487842120106E4FBFA7908
:100A03007F784312020FC004C005C006C007AC2C98
:100A1300E412032FA804A905AA06AB07D007D00642
:100A2300D005D0041202AC502AE53264176024E5E5
:100A330033643B601EE534B4370464386015E54322
:100A43006403600F85322E85332F85343075310171
:100A53001210C1AC35AD36EC12032AE4FBFA794827
:100A63007842120106E4FBFA797F784312020FC041
:100A730004C005C006C007AC2DE412032FA804A9C7
:100A830005AA06AB07D007D006D005D0041202ACE6
:100A930060264024E5326417601EE533643B60182A
:100AA300E534B437046438600F85322E85332F85DF
:100AB3003430E4F5311210C1D28C12056C020844B3
:1010E700E4FEC297EF1392A3EFC313FFD2970EBE8E
:0210F70008F0FF
:0110F90022D4
:0810580075F00A84E5F02EFD9D
:10106000C29300C29700D293001210E7AF0512108E
:04107000E7C293221E
:100F9300E4FDC29300C29700D293001210E7E4FF6E
:100FA300C297EDC313FD30A303430580D2970FBF50
:0D0FB30008EEC29300C29700C2A300AF0574
:010FC000220E
:100DC800E4FD7F8E121060120406FF75F00A84C4D9
:100DD80054F0FEEF7F8412105890000112041FFF98
:100DE80075F00A84C454F0FEEF7F82121058900008
:100DF8000212041FFF75F00A84C454F0FEEF75F068
:100E08000A84E5F02EFD7F801210607D807F8E02BF
:020E1800106068
:100E64007F85120F93EFC4540F75F00AA4FEEF545C
:100E74000F2E12044C7F83120F93EFC4540F75F09E
:100E84000AA4FEEF540F2E90000112045E7F81121B
:100E94000F93EFC4540F75F00AA4FEEF540F2E9075
:050EA400000202045EE3
:060AC3008B0D8A0E890F65
:100AC900E4F514F513E513C394084003020BD4AB02
:100AD9000DAA0EA90F85148275830012041F120432
:100AE900C40BA1200B9C2D0B33300B38310B3D323D
:100AF9000B42330B47340B4C350B51360B56370B26
:100B09005B380B60390B65410B6A420B6F430B7401
:100B1900440B79450B7E460B83480B884C0B8D4E55
:100B29000B92500B975500000BA17515C0806C7581
:100B390015F980677515A480627515B0805D751506
:100B49009980587515928053751582804E7515F8E0
:100B590080497515808044751590803F751588808A
:100B69003A75158380357515C680307515A1802BAA
:100B7900751586802675158E8021751589801C75D9
:100B890015C780177515C8801275158C800D7515D8
:100B9900C180087515BF80037515FF85148275839B
:100BA90000A3AB0DAA0EA90F12041FB42E055315ED
:100BB9007F0514AB10AA11A912851382758300E56C
:0B0BC9001512045E05130514020ACE8D
:010BD40022FE
:100EA9007580FFE5A0541F44E0F5A053A01F74010D
:100EB900A805088002C333D8FCF580E5A0541F4477
:100EC900C0F5A053A01FAF058F8275830012041FC0
:0E0ED900F580E5A0541F44E0F5A053A01F22B1
:100BD500C2C4D2C2D2B5D2B4AFB07E00D2C4C2C2F2
:100BE500EFC4F8540FC868FFEEC454F048FEE5B0F2
:100BF500540FFDEF4DD2C2C2B5C4F8540FC868FFFB
:100C0500EEC454F048FEE5B0540FFDEF4DD2B5C229
:100C1500B4C4F8540FC868FFEEC454F048FEE5B0FC
:100C2500540FFDEF4DF4FFEEF4FEEF8EF01204EAE3
:100C35000CC400010CBF00020CBA00040CB500087E
:100C45000CB000100CAB00200CA600400CA10080DD
:100C55000C9C01000C9702000C9204000C8D0800FE
:100C65000C8810000C8320000C7E40000C7980005D
:100C750000000CC9750904804E7509058049750980
:100C8500068044750907803F750908803A7509098A
:100C9500803575090A803075090B802B75090C8024
:100CA5002675090D802175090E801C75090F8017A1
:100CB5007509108012750911800D75091280087566
:090CC50009138003E4F509AF09ED
:010CCE002203
:04110700D2A07F05EE
:08110B0000AE071FEE70F9228F
:0C111300D2A1121107C2A17F0502110B2E
:0C111F00C2A1121107D2A17F0502110B22
:1010AA00C2A0A20292A17F0512110B121107C2A0BF
:0710BA00D2A17F0502110B1A
:0A108F00AB051211137FA0120FEF42
:10109900121107A2A19202C2A07F0512110BA2028E
:0110A9002224
:020FEF00AD074C
:100FF100E4FCC2A07F0512110BED30E704D2A18001
:1010010002C2A17F0512110BD2A0ED25E0FD7F05E3
:0910110012110B0CBC08DBC2A09B
:01101A0022B3
:10103B00E4FC121107ED25E0FD30A103430501C2CD
:0C104B00A07F0512110B0CBC08E8AF05DB
:011057002276
:100FC1001211137F90120FEF1210997F43120FEF3E
:100FD1001210991211137F91120FEF121099121022
:0D0FE1003BAD07D2021210AA12111FAF057E
:010FEE0022E0
:10101B00AB071211137F90120FEF1210997F43122F
:10102B000FEF121099AF03120FEF12109902111F4D
:100E1A008B098A0A890B12108FAF03120FEF121077
:100E2A00991211137FA1120FEF121099AF0D150D20
:100E3A00EF602412103BAB09050BE50BAA0A7002FE
:100E4A00050A14F9EF12044CE50D6004C20280028F
:0A0E5A00D2021210AA80D502111F67
:100F23008B098A0A890B12108FAF03120FEF12106D
:100F330099AF0D150DEF601FAB09050BE50BAA0A61
:100F43007002050A14F9120406FF120FEF1210992A
:0A0F53007FC812110B80DA02111F93
:10000E000203CFE86480F8E933E83360110460F04E
:10001E00ED33EC337009E8FCE9FDEAFEEBFF220458
:10002E0060DED3EB9FEA9EE99DE8C2E78CF0C2F753
:10003E0095F0400CE8CCF8E9CDF9EACEFAEBCFFB1F
:10004E0012039A85D0F05804700320D5B3E80470DB
:10005E00075002B2D50203D992D5EC0460F7E4CC76
:10006E00C0E0C398F8603B94186008400DD0E0FBE8
:10007E000203B1E4FBFAC9FC8028E830E406E4C9C7
:10008E00FBE4CAFCE830E305E4C9CACBFCE854073C
:10009E006010F8C3E913F9EA13FAEB13FBEC13FC47
:1000AE00D8F130F52FC3E49CFCEF9BFFEE9AFEEDEA
:1000BE0099FDD0E0FBEF4E4D4C701222DB03020394
:1000CE00D6EC2CFCEF33FFEE33FEED33FDED30E7D7
:1000DE00EB0203B1EF2BFFEE3AFEED39FDD0E0FB64
:1000EE0050130BBB00030203D9ED13FDEE13FEEF0D
:0800FE0013FFEC13FC0203B137
:10010600EC4D6011E8497017ED33EC3304600DE4F3
:10011600FCFFFEFD22E933E8330470F80203CF1238
:10012600039A58046009E4CC248150062850090239
:1001360003D92840030203D6C0E0EB4A7044B980D5
:1001460006D0E0FB0203C5EF4E701CBD8008EBFF36
:10015600EAFEE9FD80EBE98DF0A4FEE5F00201EF91
:10016600E9CDF9EAFEEBFFEF89F0A4FCE5F0CE89D4
:10017600F0A42EFFE435F0CD89F0A42DFEE435F091
:100186008067EF4E7005BD80D780C3EF8BF0A4ACBF
:10019600F0EE8BF0A42CFCE435F0F8EF8AF0A42CFA
:1001A600E5F038FCE433CB8DF0A42CFCE5F03BF80D
:1001B600EE8AF0A42CFCE5F038F8E433CF89F0A4FD
:1001C6002CFCE5F038CF3400CE89F0A42FFFE5F003
:1001D6003EFEE433C98DF0A42EFEE5F039CD8AF05B
:1001E600A42FFFE5F03EFEE43DFD33D0E0FB5007D3
:1001F6000BBB000F0203D9EC2CFCEF33FFEE33FEF2
:06020600ED33FD0203B11F
:10020C000203D9EC5D046005E8590470030203CFC6
:10021C0012039A580460F6EC4860F2EC7004FDFE90
:10022C00FF22C860DB2481C85009C39860025006C5
:10023C000203D69850CAF582E9294B4A7005AB8265
:10024C000203C575F0007C1A7880C3EF9BEE9AED23
:10025C0099400DC3EF9BFFEE9AFEED99FDE842F03D
:10026C00DC23ACF0D0E0FFD0E0FED0E0FDAB822090
:10027C00E7101BEB60BAEC2CFCEF33FFEE33FEED1A
:10028C0033FD0203B1E803F830E705C0F075F00068
:10029C00EF2FFFEE33FEED33FD40B830E7C280AAFE
:1002AC0074F8CC6480CCC86480C8F58204604FC3F9
:1002BC00EB9FF5F0EA9E42F0E99D42F0E89C45F098
:1002CC00603C501DE5825FFFE582D313CB5BCBF422
:1002DC002B5582FB50280ABA002409B9002008804B
:1002EC001DE5825BFBE582D313CF5FCFF4C3132FE5
:1002FC005582FF50090EBE00050DBD00010CC3EB6D
:10030C009FF5F0EA9E42F0E99D42F0E89C45F060D2
:09031C0007CC4820E701B3EC22F4
:1003250075F020800E75F010800575F0087D007E53
:10033500007F003392D530D5031204B6EC3340105C
:10034500EF33FFEE33FEED33FDEC33FCD5F0ED225C
:0E035500E5F0247EA2D513CC92E7CDCEFF2298
:10036300EDD2E7CD33EC3392D524814006E4FFFE92
:10037300FDFC22FCE4CFCECDCC24E0501174FF80F1
:10038300EDC3CC13CCCD13CDCE13CECF13CF04708E
:07039300F030D5DE0204B6D4
:10039A00E9D2E7C933E833F892D5EDD2E7CD33ECA9
:0703AA0033FC5002B2D52222
:1003B100EC30E7100FBF000C0EBE00080DBD0004AD
:1003C1000BEB6014A2D5EB13FCED92E7FD2274FF59
:1003D100FCFDFEFF22E480F8A2D574FF13FC7D80B2
:0303E100E480EFC6
:03000000020CCF20
:0C0CCF00787FE4F6D8FD758143020D1615
:1003E400C2D530F707B2D563F0FF05F030E70CB2A1
:1003F400D5F4048463F0FF05F080018430D502F461
:020404000422D0
:10040600BB010689828A83E0225002E722BBFE02F4
:09041600E32289828A83E4932227
:10041F00BB010CE58229F582E5833AF583E0225092
:10042F0006E92582F8E622BBFE06E92582F8E222DC
:0D043F00E58229F582E5833AF583E49322F6
:10044C00BB010689828A83F0225002F722BBFE018F
:02045C00F32289
:10045E00F8BB010DE58229F582E5833AF583E8F0D4
:10046E00225006E92582C8F622BBFE05E92582C880
:02047E00F22268
:10048000C2D5EC30E709B2D5E4C39DFDE49CFCEE97
:1004900030E715B2D5E4C39FFFE49EFE120517C3F3
:1004A000E49DFDE49CFC800312051730D507C3E4EE
:0604B0009FFFE49EFE2206
:0E04B600C3E49FFFE49EFEE49DFDE49CFC2257
:1004C400D083D082F8E4937012740193700DA3A3C7
:1004D40093F8740193F5828883E4737402936860DB
:0604E400EFA3A3A380DFDB
:1004EA00D083D082F8E4937012740193700DA3A3A1
:1004FA0093F8740193F5828883E473740293B5F0D8
:0D050A00067403936860E9A3A3A3A380D83F
:100CDB00020833E493A3F8E493A34003F68001F2F4
:100CEB0008DFF48029E493A3F85407240CC8C3331A
:100CFB00C4540F4420C8834004F456800146F6DFE9
:100D0B00E4800B0102040810204080900EE7E47E83
:100D1B00019360BCA3FF543F30E509541FFEE493DD
:100D2B00A360010ECF54C025E060A840B8E493A3A4
:100D3B00FAE493A3F8E493A3C8C582C8CAC583CACF
:100D4B00F0A3C8C582C8CAC583CADFE9DEE780BE87
:010F220000CE
:10051700BC000BBE0029EF8DF084FFADF022E4CCC8
:10052700F875F008EF2FFFEE33FEEC33FCEE9DEC91
:10053700984005FCEE9DFE0FD5F0E9E4CEFD22EDD7
:10054700F8F5F0EE8420D21CFEADF075F008EF2F21
:10055700FFED33FD4007985006D5F0F222C398FD12
:050567000FD5F0EA22AF
:00000001FF
